:20016C0075C70075C50075C60075C3FF75C4FF22AE82AF83A2AFE433FDC2AF75F51275C741
:20018C008075C5028FC38EC48508C275C65A75C6A50000C00512016CD005ED24FF92AF22A3
:2001AC00AE82AF83A2AFE433FDC2AF75F51275C78075C5018FC38EC475C65A75C6A500006F
:2001CC00AFC2C007C00512016CD005D007ED24FF92AF8F8222AE82AF83A2AFE433FDC2AF2F
:2001EC0075F51275C78075C5038FC38EC475C65A75C6A50000C00512016CD005ED24FF92AA
:20020C00AF227F007D007E00C3ED9431EE94005014ED2401F582EE3400F583E02FFF0DBD31
:20022C0000E60E80E38F822212020EAF82900032EFF09000001201E17E007F00EE2401F5AB
:20024C0082EF3400F583E0F5088E828F83C007C00612017CD006D0070EBE00010FC3EE948C
:20026C0032EF940040D6227E007F00EE2401FBEF3400FC7D008E828F83C007C006C005C0AA
:20028C0004C0031201ACAA82D003D004D005D006D0078B828C838DF0EA1214190EBE0001E8
:2002AC000FC3EE9432EF940040C1900001E0FEA3E0FFBE5A16BF5A13900032E0FFC0071263
:2002CC00020EAE82D007EFB5060122900001745AF0A3F09000037420F07403A3F090000596
:2002EC007405F0900007E4F090000804F0900009740AF07E007F00EE2EFCEF33FDEC240A3D
:20030C00FAED3400FBEC2483F582ED3415F583E493FCA3E493FD8A828B83ECF0EDA3F00EF5
:20032C00BE00010FC3EE940AEF940040CA7E0A7F00EE2EFCEF33FDEC240AF582ED3400F522
:20034C0083E4F0A3F00EBE00010FC3EE9414EF940040DE12020EAF82900032EFF0020234A5
:20036C00AF82900009E0FEC3EF9E5022EF2F240AF582E43400F583E0FEA3E0FF900003EED3
:20038C00F0EFA3F08E828F8312050F020234227EF87F02900009E4F09002F8C007C00612B0
:2003AC00050FD006D007C374389E74049F5003020451900009E0FDBD14004003020451754C
:2003CC008201C007C00612059ED006D0077D00C007C006C0051205D0E582D005D006D00700
:2003EC00701890000AC007C006C00512131AD005D006D0070DED243750D5C007C00612059E
:20040C00FBE582D006D007703CC007C0061206BEAC82AD83D006D007C3EE9CEF9D502690C8
:20042C000009E025E0240AF582E43400F583ECF0EDA3F0900009E0FB0B900009EBF08C06AC
:20044C008D070203B2900009E0601290000AE0FEA3E0FF900003EEF0EFA3F0800A90000350
:20046C007420F07403A3F0900003E0FEA3E0FF8E828F8312050F120234900009E0F582224D
:141583000A03270339034603A103A9032003200320032003BC
:2000FA007509C0750A09750B00750C08750D0A750E00750F8875100F7511007512007513D3
:04011A004275142AEC
:20048C00AF82C0071213427582221213621213D5D0078F821213621213D58515821213624B
:2004AC001213D58516821213621213D512135190000A02131A751500751600758203120434
:2004CC008C75150075160175820212048C90001E12131A75150075160875820312048C75B8
:2004EC0009C0750A0985091575160975820212048C750F90751085850F15751685758205FA
:20050C0002048CAE82AF83C3EE94F8EF940250067EF87F02800DC374389E74049F50047E49
:20052C00387F04EE2408FEEF34FD8E04C313CC13CCC313CC13CC8C0B530603EE030354C02D
:20054C00FE4306188E0C850B158E1675820312048C74EF550CF50C22E582FF24F050027F7F
:20056C000F74F0551042078F10850F158F1675820502048CE582600874BF5509F5098006EF
:20058C0074404509F509850915850A1675820202048CAF8274404509F509EF600874024539
:2005AC0009F509800674FD5509F50974014509FF8F09850A168F1575820212048C74FE55D0
:2005CC0009F509221213427582211213621213D512138EAF82758201C0071213C2121351E6
:2005EC00D007EF30E6047F0180027F008F82221213427582211213621213D512138EAF8277
:20060C00758201C0071213C2121351D007EF30E5047F0180027F008F8222E58260087410CC
:20062C004509F509800674EF5509F509850915850A1675820202048CE58260087420450999
:20064C00F509800674DF5509F509850915850A1675820202048CE582600874F7550DF50DEA
:20066C0080067408450DF50D850D15850E1675820402048CE58260087402450DF50D80061C
:20068C0074FD550DF50D850D15850E1675820402048CE582FF24F050027F0F74F0550FFE7C
:2006AC00740F5F42068E0F8510168E1575820502048C1213427582211213621213D5121366
:2006CC008EAF82758200C0071213C212138EAE82758201C0061213C2121351D006D00753AC
:2006EC0007038F05E4FFFCEE4207EC420574F82FF58274023DF58322121342758221121304
:20070C00621213D512138E7582001213C212138E7582001213C212138EAF82758201C007AC
:20072C001213C2121351D007EFC313F582221213427582211213621213D512138EAF8275C2
:19074C008201C0071213C2121351D007EF30E2047F0180027F008F82225D
:040000000200A13227
:03000B0002111CC3
:0100130032BA
:01001B0032B2
:0100230032AA
:01002B0032A2
:01003300329A
:01003B003292
:01004300328A
:01004B003282
:01005300327A
:01005B003272
:01006300326A
:01006B003262
:01007300325A
:01007B003252
:01008300324A
:01008B003242
:01009300323A
:03009B000209D582
:0F011E007517FF7518FF7519FF751AFF751B0010
:0301690002009EF3
:03009E00020C450C
:20076500AE82AF839015A1E493FD8D1A75440A7545008E828F83C007C0061213F075440AAD
:200785007545001214C4AC82AD83D006D007EC2497F582ED3415F583E493FD8D1975440AFC
:2007A5007545008E828F831214C4AE82AF83EE2497F582EF3415F583E493FF8F189015A1D9
:2007C500E493FF8F1722AE82AF83C3EE94E8EF940340337544E87545038E828F83C007C047
:2007E500061213F075440A7545001214C4AC82AD83D006D007EC2497F582ED3415F583E4B7
:2008050093FD8D1A80089015A1E493FD8D1A7544647545008E828F83C007C0061213F075A3
:20082500440A7545001214C4AC82AD83D006D007EC2497F582ED3415F583E493FD8D19755B
:20084500440A7545008E828F83C007C0061213F075440A7545001214C4AC82AD83D006D05C
:2008650007EC2497F582ED3415F583E493FD747F5DF51875440A7545008E828F831214C446
:20088500AE82AF83EE2497F582EF3415F583E493FF8F17229015A1E493FF8F1A9015A1E454
:2008A50093FF8F199015A1E493FF8F189015A1E493FF8F1722AF829015A3E493FE8E1ABFBD
:2008C5000A0040298F057E0075440A8E458D828E83C007121547AD82AE83D007ED2497F5CF
:2008E50082EE3415F583E493FE8E1980089015A1E493FE8E197E0075440A8E458F828E8386
:20090500121511AE82AF83EE2497F582EF3415F583E493FF8F189015A1E493FF8F1722AF18
:20092500829015A5E493FE8E1ABF0A0040298F057E0075440A8E458D828E83C0071215479A
:20094500AD82AE83D007ED2497F582EE3415F583E493FE8E1980089015A1E493FE8E197E09
:200965000075440A8E458F828E83121511AE82AF83EE2497F582EF3415F583E493FF8F1833
:200985009015A1E493FF8F1722AF82BF01219015A3E493FF8F1A9015A1E493FF8F1990154C
:2009A500A1E493FF8F189015A1E493FF8F17229015A4E493FF8F1A9015A1E493FF8F199094
:2009C50015A1E493FF8F189015A1E493FF8F172253ABBF3275B10075B20075B0FF75AB003B
:2009E50075AAE775AB83C2A8C2AA43AF08D2AF00004387020000000053AB7F900005021305
:200A05001A90000A12131A1209D97F00900001C00712131AD007AE3D53060FBE0F060FBF09
:200A2500050040E8AF3D53070FBF0F0280D92285821D1206BE85821E85831FAB1EAC1F7991
:200A4500007A00E51D60140BBB00010CC374389B74049C501A7BF87C028014C374F89B7483
:200A6500029C40067B387C0480051BBBFF011C8B828C83C004C003C002C00112050FD001C6
:200A8500D002D003D0048B828C83C004C003C002C0011207CB90009612131A120704858245
:200AA5002090001412131A120704858221D001D002D003D004A8207F00AD217E00ED28F8FF
:200AC500EE3FA2E713C813C8C3E8951C503209B900010AC3E99441EA94014019851E8285F7
:200AE5001F8312050F851E82851F831207CB851E82851F8322AF3D53070FBF0F03020A4811
:200B05008B828C8322AF82AD22AE238F04EC04F582C007C006C005C004120924D004D005C9
:200B2500D0068D028E038A828B83C006C005C004C003C00212050F9003E812131AD002D04A
:200B4500038A828B831207CB121306D004D005D006D007E52F30E33F532FF78D028E03C34C
:200B650074F89A74029B50051DBDFF011E8D028E038A828B83C007C006C005C004C003C039
:200B85000212050FD002D0038A828B831207CBD004D005D006D007E52F30E23F532FFB8DC0
:200BA500028E03C3EA9438EB940450050DBD00010E8D028E038A828B83C007C006C005C027
:200BC50004C003C00212050FD002D0038A828B831207CBD004D005D006D007E52D20E3054E
:200BE500E52D30E242EF2F240AF582E43400F5838D028E03EAF0EBA3F0C004C003C0021264
:200C05000234D002D003D004EC04F582C003C0021208BA9003E812131AD002D0038A828B6A
:200C2500831207CB021306900064C007C006C005C00412131AD004D005D006D007020B5829
:200C450075240A752503752605752700752801121337121107120273900003E0F524A3E059
:200C6500F525900005E0F526900007E0F527900008E0F5281204C17582011205807582013F
:200C850012062685268212056485248285258312050F7582001205808524828525831207EC
:200CA500CBE4F539F53AF53BF53C7F00E51B6022C0071205D0E582D0076017751B001206B6
:200CC500BE8582248583258524828525831207CB7F01E52D20E303020D72E52D20E203028B
:200CE5000D72532DF3E527703C75270175280175820112098E9003E812131A1213068528D7
:200D0500821208BA90000AE0F524A3E0F525900003E524F0E525A3F08524828525831205B0
:200D25000F7E01801D75270075820012098E9003E812131A1213068524828525831207CB26
:200D45007E01EE7003020CAFE4F539F53AF53BF53C900003E524F0E525A3F0900005E52686
:200D6500F0900007E527F0120234020CAFE5277003020F30E52F30E345532FF77401B528EF
:200D850008900009E0F5288005E52814F5288528821208BAAE281EEE2E240AF582E434001D
:200DA500F583E0F524A3E0F525900003E524F0E525A3F085248285258312050F7F01E52FE5
:200DC50030E244532FFB900009E0B528057528018005E52804F5288528821208BAAE281E98
:200DE500EE2E240AF582E43400F583E0F524A3E0F525900003E524F0E525A3F0852482852E
:200E0500258312050F7F01E52E20E205E52E30E313532EF3E52814F5828524228525231276
:200E25000B0A7F01E52F30E127532FFD74F125264005E52604F52675820012058085268273
:200E4500120564AD267E008D828E831207657F01E52E30E121532EFD74F125264005E526E0
:200E650004F526852682120564AD267E008D828E831207657F01E52F30E025532FFEE52663
:200E85006005E52614F526758200120580852682120564AD267E008D828E831207657F0109
:200EA500E52E30E00B532EFE7582011205807F01EF6022E4F539F53AF53BF53C900003E5E6
:200EC50024F0E525A3F0900005E526F0900008E528F0120234C3E53994B8E53A940BE53BE4
:200EE5009400E53C940040098524828525831207CBC3E5399410E53A9427E53B9400E53CEB
:200F05009400401E120899120A068528821208BA9003E812131A121306E4F539F53AF53BAC
:200F2500F53C90006412131A020CAFE52F30E235532FFBAD24AE2574012DF524E43EF52518
:200F4500C3743895247404952550067524F875250285248285258312050F852482852583D9
:200F65001207CB7F01E52F30E336532FF7AD24AE25ED24FFF524EE34FFF525C3E52494F8D2
:200F8500E5259402500675243875250485248285258312050F8524828525831207CB7F01AD
:200FA500E52F30E127532FFD74F125264005E52604F526758200120580852682120564AD5F
:200FC500267E008D828E831207657F01E52E30E121532EFD74F125264005E52604F52685E3
:200FE5002682120564AD267E008D828E831207657F01E52F30E025532FFEE5266005E52616
:2010050014F526758200120580852682120564AD267E008D828E831207657F01E52E30E0D4
:201025000B532EFE7582011205807F01E52E30E21D532EFB751C17758201120A3485822439
:201045008583258524828525831207CB7F01E52E30E31D532EF7751C17758200120A348573
:2010650082248583258524828525831207CB7F01EF601CE4F539F53AF53BF53C900003E557
:2010850024F0E525A3F0900005E526F0120234C3E53994B8E53A940BE53B9400E53C94006E
:2010A50040098524828525831207CBC3E5399410E53A9427E53B9400E53C94004021120863
:2010C50099120A068524828525831207CB9003E812131A121306E4F539F53AF53BF53C90FD
:0810E500006412131A020CAFA3
:0F159700C0F9A4B0999282F88090FFBF8C8E8625
:20012D00753E00753F00754000754100754200E4F529F52AF52BF52CF52DF52EF52F7530B9
:1C014D000FF531F532F533F534F535F536F537F538F539F53AF53BF53C753D0FBC
:2010ED00121434538E7F5389F0758A00758CFAC28DD28CD2A9D2AFD28C224392C353913C82
:20110D0053903C75B0FF75B10075B2FF0210EDC0E0C0F0C082C083C007C006C005C004C089
:20112D0003C002C001C000C0D075D000AC39AD3AAE3BAF3C74012CF539E43DF53AE43EF5B1
:20114D003BE43FF53CE529452A600EAE29AF2AEE24FFF529EF34FFF52A74FFB5171574FF21
:20116D00B5181074FFB5190B74FFB51A0653903C75420474FC2542401B53903CE542241764
:20118D00F987B075B10075B2FFE5429015A69342900212E053903C75B10075B20075B0FF6B
:2011AD0000000000E5B00303543F540FFFF53DF4FEE5305206E530F45FF543EE422BE543DE
:2011CD00422C7E008EF005F07B017C008006EB2BFBEC33FCD5F0F7AA437D00EA5203ED5255
:2011ED0004EB4C6023EE2E2431F9870409870519C3EC94C8ED9400500F8EF005F07401802E
:20120D000225E0D5F0FB422F0EBE040040B68F307E008EF005F07C017D008006EC2CFCED92
:20122D0033FDD5F0F78F027B00EA5204EB5205EC4D60030212C7EE2EFD2431F9870309872F
:20124D000419C3EB94FFEC94FF5015ED2431F98703098704190BBB00010CA70309A7041983
:20126D00ED2431F9870309870419BBC81ABC00178EF005F07401800225E0D5F0FB422DEEF3
:20128D00243EF876008043ED2431F9870409870519C374C89CE49D5031EE243EF987050DBB
:2012AD00A705BD1400402377008EF005F07401800225E0D5F0FB422E8010EE2E2431F876BC
:2012CD0000087600EE243EF876000EBE0400500302121F054274FB25425003754200D0D0A8
:2012ED00D000D001D002D003D004D005D006D007D083D082D0F0D0E032C2AF753D0F753027
:1A130D000F752F00752D00752E00D2AF2285822985832AE529452A70FA22C0
:0415A600010240807E
:20132700754404E544FF14F544EF60030080F42253C9CF53CACFD2CCD2CD22D2CCD2CD1207
:201347001327C2CC121327C2CD22C2CDC2CC121327D2CD121327D2CC021327AF827E008F55
:2013670005530580ED24FF92CC8F05ED2DFFC007C006121327D2CD121327D006D007C2CD6E
:201387000EBE080040D9227F00D2CC7E008F05ED2DFFD2CDC007C006121327D006D007309A
:2013A700CC03430701C2CDC007C006121327D006D0070EBE080040D58F8222E58224FF92BF
:2013C700CC121327D2CD121327C2CDD2CC22D2CC121327D2CD121327A2CCE433FFC2CDC00C
:0913E70007121327D0078F8222A0
:2013F0007A10E4FBFCE58225E0F582E58333F583EB33FBEC33FCEB9544F5F0EC9545400699
:09141000FCABF0438201DADD229D
:0600D000E478FFF6D8FD04
:2000AE007900E94400601B7A009015AD783375A000E493F2A308B8000205A0D9F4DAF27504
:0200CE00A0FF91
:1B14190020F71130F6138883A88220F509F6A8837583002280FEF280F5F022D2
:201434007E007F0075BA8090FE01E0601890FE01E4F0FCFD7B051CBCFF011DEC4D70F7DBB9
:20145400F58C068D0775BA00759D0075A600759F00759E001EBEFF011FEE4F70F722AF82E8
:20147400759D008FA685449F759E007E007F001EBEFF011FEE4F70F722AE82AF839015AA27
:20149400E493FC740193FD1CBCFF011DEC4D70F71EBEFF011FEE4F70E422AE82AF83901576
:1014B400ACE493FDDDFE1EBEFF011FEE4F70EF2274
:0315AA0000080234
:2014C400E544454560467A01E54425E0F544E545334012F545E5829544E583954540030A15
:2014E40080E6C3E54513F545E54413F544C3E5829544F5F0E58395454005F58385F082C332
:0D150400E54513F545E54413F544DAE12211
:2000D6007800E84400600A790175A000E4F309D8FC7832E84400600C7901900001E4F0A3F5
:0400F600D8FCD9FA5F
:0D00A10075814512157FE582600302009E07
:20151100C2D5E58330E70DD2D5E4C39582F582E49583F583E54530E70BE4C39544F544E45E
:161531009545F5451214C430D50BE4C39582F582E49583F58322CB
:20154700C2D5E58330E70DD2D5E4C39582F582E49583F583E54530E70DB2D5E4C39544F5C7
:1815670044E49545F5451213F030D50BE4C39582F582E49583F5832240
:04157F00758200224F
:00000001FF
